:100000000C94FE050C941B060C941B060C941B060A
:100010000C941B060C941B060C941B060C941B06DC
:100020000C941B060C941B060C9484230C945624ED
:100030000C94A81A0C941B060C941B060C941B061B
:100040000C941B060C941B060C941B060C941B06AC
:100050000C941B060C941C1B0C941B060C941B0686
:100060000C941B060C941B060C941B060C941B068C
:100070000C941B060C941B060C941B060C941B067C
:100080000C941B060C941B060C941B060C941B066C
:100090000C941B060C941B060C941B060C941B065C
:1000A0000C941B060C941B060C941B067A077C0709
:1000B00087077E07800782078407860789078B07E3
:1000C0008D0798078F0791079307950797079A075A
:1000D0006110611093109310D110131213121312A8
:1000E000F1101312921192110312131213120C1227
:1000F0009F119F119F119F119F119F119F119F1180
:100100009F119F119F119F119F119F119F119F116F
:10011000B011BE11C511CC11D6119E129E12B01293
:10012000B012A712B012B012B0129E129E12AC12F0
:10013000B012B012AC12061DF41C181DBA1BF11D32
:10014000F11DF11CF11DF11D451DF11D591DD11DA4
:10015000F11DF11DF11DF11D8D1DF11DF11D761D0E
:10016000F11D311DF11DF11DEB1DEB1DEB1DEB1DF7
:10017000EB1DEB1DEB1DEB1DEB1DED1DF11D061D1C
:10018000E91CF11DF11DF11DF11DF11DF11DF11D08
:10019000F11DF11DF11DED1DF11DF11DF11CF11DF4
:1001A000E91DE91DE91DE91DE91DE91DE91DE91D1F
:1001B000E91DED1DC324EA24DC25EA24DC253625CF
:1001C0005925DC25AF25BE2529003A003B003C001F
:1001D0003D003E003F00400041004200430044001B
:1001E00049004C00460035001E001F002000210081
:1001F0002200230024002500260027002D004500B2
:100200002A004A002B0014001A00080015001700ED
:100210001C0018000C00120013002F002E003100EB
:100220004B00390004001600070009000A000B000B
:100230000D000E000F0033003400300028004E0087
:10024000E1001D001B000600190005001100100050
:100250003600370038000000E50052004D00E00095
:10026000E300E200000000002C000000000000009D
:10027000E6000251E400500051004F00010001006F
:100280000100010001000100010001000100010066
:100290000100010001000100010001000100010056
:1002A0000100010001000100010001000100010046
:1002B0000100010001000100010001000100010036
:1002C0000100010001000100010001000100010026
:1002D0000100010001000100010001000100010016
:1002E0000100010001000100010001000100010006
:1002F00001000100010001000100010001000100F6
:1003000001000100010001000100000001000100E6
:1003100001000100000001000000000001000000D9
:1003200000000000010001000100010001000100C7
:1003300001000100010001000100010001000100B5
:1003400001000100010001000100010001000100A5
:100350000100010001000100010001000100010095
:100360000100010001000100010001000100010085
:1003700001000100005C010001000100010001001A
:100380000100010001000100BD00010001000100A9
:10039000015C0100015301000100010001000100A6
:1003A000010001000100BE00010001000100010088
:1003B000010001000100A80001000100010000008F
:1003C0000100A9000100010001000100000000007F
:1003D000AE00000000000000010001000100AC00C0
:1003E000AA00AB0044454255473A206469736162F4
:1003F0006C65642E0A0044454255473A20656E619B
:10040000626C65642E0A000A002530313662003ABB
:10041000200025303258000A722F632030313233E9
:100420003435363738394142434445460A000A00DC
:100430002530325820006B6579626F6172645F729B
:1004400065706F72743A20000A0025303258006BD4
:100450006579626F6172645F7365745F6C65643A3D
:10046000200064656C5F6B65795F6269743A206334
:10047000616E27742064656C3A20253032580A007A
:100480006164645F6B65795F6269743A2063616E71
:100490002774206164643A20253032580A003F00F6
:1004A000433E20004C25640A0074696D65725F72DA
:1004B000656164333228293A202530346C580A00AB
:1004C0006B65796D61705F636F6E6669672E6E6BC9
:1004D000726F3A2025580A006B6579626F61726409
:1004E0005F69646C653A2025580A006B6579626F14
:1004F0006172645F70726F746F636F6C3A2025581D
:100500000A00686F73745F6B6579626F6172645F14
:100510006C65647328293A2025580A000A092D20A1
:10052000537461747573202D0A004743433A203495
:100530002E392E32204156522D4C4942433A203218
:100540002E302E30204156525F415243483A2061AE
:100550007672350A004F5054494F4E533A204C554D
:1005600046412045585452414B455920434F4E5324
:100570004F4C4520434F4D4D414E44204E4B524F22
:10058000203531320A004255494C443A2022302E5F
:10059000362E3430352D332D673965623438642278
:1005A000202831363A30363A3237204A756C2020CE
:1005B000342032303139290A005649443A20307803
:1005C0004645454428224161726F6E205368617030
:1005D00070656C6C2C205279616E2053686170706C
:1005E000656C6C2229205049443A203078333134EC
:1005F000312822637573746F6D5F6B6579626F610B
:1006000072642229205645523A20307830303031F9
:100610000A00444553433A20224120637573746FA6
:100620006D2C2068616E647769726564206D656306
:1006300068616E6963616C206B6579626F61726479
:10064000220A000A092D2056657273696F6E202DEB
:100650000A000A092D20436F6E736F6C65202D0A06
:100660004553432F713A09717569740A000A092DBF
:10067000204D61676963202D0A443A09446562751B
:1006800067204D65737361676520546F67676C659C
:100690000A583A094D617472697820446562756739
:1006A000204D6F646520546F67676C65202D205363
:1006B000686F77206B6579707265737365732069F5
:1006C0006E206D617472697820677269640A4B3AB2
:1006D000094B6579626F61726420446562756720B9
:1006E000546F67676C65202D2053686F77206B65AA
:1006F000797072657373207265706F72740A4D3A07
:10070000094465627567204D6F75736520546F6786
:10071000676C650A563A0956657273696F6E0A53BB
:100720003A095374617475730A433A0941637469F1
:100730007661746520436F6E736F6C65204D6F64D6
:10074000650A46312D4631303A095377697463683A
:1007500020746F204C6179657220302D3920284635
:100760003130203D204C30290A302D393A09537759
:100770006974636820746F204C6179657220302D34
:10078000390A47524156453A0953776974636820DC
:10079000746F204C6179657220302028616C74651B
:1007A000726E617465290A423A094A756D70207447
:1007B0006F20426F6F746C6F616465720A455343BA
:1007C0003A094A756D7020746F20426F6F746C6FB8
:1007D000616465722028616C7465726E617465294C
:1007E0000A453A095072696E7420454550524F4D82
:1007F0002053657474696E67730A425350414345D0
:100800003A09436C65617220454550524F4D0A4E7E
:100810003A094E4B524F20546F67676C650A000AC5
:10082000002575002E6E6B726F3A20000A00257548
:10083000002E737761705F6261636B736C617368C4
:100840005F6261636B73706163653A20000A002523
:1008500075002E737761705F67726176655F65738F
:10086000633A20000A002575002E6E6F5F67756978
:100870003A20000A002575002E737761705F72615F
:100880006C745F726775693A20000A002575002E46
:10089000737761705F6C616C745F6C6775693A2027
:1008A000000A002575002E636170736C6F636B5FC7
:1008B000746F5F636F6E74726F6C3A20000A00256C
:1008C00075002E737761705F636F6E74726F6C5F0B
:1008D000636170736C6F636B3A20000A00253032DD
:1008E00058006B65796D61705F636F6E6669672E26
:1008F0007261773A20000A002575002E6D6F7573BE
:10090000653A20000A002575002E6B6579626F61DB
:1009100072643A20000A002575002E6D61747269B8
:10092000783A20000A002575002E656E61626C65BC
:100930003A20000A00253032580064656275675F0E
:10094000636F6E6669672E7261773A20000A002530
:10095000750064656661756C745F6C617965723A87
:1009600020003F004E4B524F3A206F66660A004E01
:100970004B524F3A206F6E0A000A6D6F7573653ADD
:10098000206F66660A000A6D6F7573653A206F6E98
:100990000A000A6B6579626F6172643A206F66665D
:1009A0000A000A6B6579626F6172643A206F6E0AA1
:1009B000000A6D61747269783A206F66660A000AEF
:1009C0006D61747269783A206F6E0A000A6465621C
:1009D00075673A206F66660A000A64656275673A51
:1009E000206F6E0A000A0A4A756D70696E6720747E
:1009F0006F20626F6F746C6F616465722E2E2E2093
:100A000000433E2000436C656172696E6720454576
:100A100050524F4D0A006565636F6E6669673A0A0A
:100A2000005B735D004B6579626F61726420737463
:100A30006172742E0A005B575D005B535D005B5270
:100A40005D005B445D005B435D000403300000001B
:100A50002403220063007500730074006F006D00B2
:100A60005F006B006500790062006F00610072003A
:100A70006400220000004003220041006100720077
:100A80006F006E002000530068006100700070006D
:100A900065006C006C002C002000520079006100A1
:100AA0006E00200053006800610070007000650057
:100AB0006C006C00220000000403090409025B00C2
:100AC000030100A0FA09040000010301010009214B
:100AD000110100012240000705810308000A0904F2
:100AE0000100010300000009211101000122710031
:100AF0000705820320000A09040200020300000027
:100B000009211101000122220007058303200001B1
:100B1000070503032000011201100100000008ED89
:100B2000FE41310100010203010631FF0974A101F8
:100B30000975150026FF00952075088102097615B4
:100B40000026FF00952075089102C005010980A1CB
:100B50000185031601002603001A81002A8300750F
:100B60001095018100C0050C0901A1018504160141
:100B700000269C021A01002A9C0275109501810032
:100B8000C005010906A1018505050719E029E7153A
:100B900000250195087501810205081901290595AF
:100BA0000575019102950175039101050719002949
:100BB000EF1500250195F075018102C005010906B8
:100BC000A101050719E029E7150025019508750120
:100BD000810295017508810105081901290595050E
:100BE000750191029501750391010507190029FF0F
:100BF000150026FF00950675088100C011241FBE50
:100C0000CFEFDAE0DEBFCDBF11E0A0E0B1E0EAEC6B
:100C1000FCE402C005900D92A233B107D9F722E09F
:100C2000A2E3B1E001C01D92A434B207E1F70E9433
:100C30009F200C9463260C940000FF93EF93E091A7
:100C40003201F0913301309709F00995EF91FF914E
:100C50000895FC018591803011F0EFDFFBCF0895FE
:100C6000FF27E0E230E247FF0CC0419597FF09C043
:100C7000EDE26095709580959095611D711D811DC7
:100C8000911D27FF02C0219530E350E2AA27660F8D
:100C9000771F881F991FAA1FA41710F0A41B639524
:100CA0005A95A9F7AA3008F0A95FA05DAF93F39514
:100CB000611571058105910541F7ED3211F4EF934E
:100CC000F395F21718F43F93F395FBCF8F91B5DFAF
:100CD000FA95E1F70895E991F9918591803021F035
:100CE000853219F0AADFF9CF089520E0E8945591F4
:100CF0005532C1F3503311F4689455915A3348F486
:100D0000505390F3220F022E220F220F200D250F99
:100D1000F4CF0EF4219589919991533619F35337F5
:100D200029F1533559F1BC0188279927E8945C369D
:100D300021F48991999168945591543639F446EF8C
:100D40007EF077FF0DC08FEF9FEF0AC055374AE066
:100D500039F0583540E121F0523642E009F008956B
:100D6000FF93EF937DDFEF91FF91B7CFFF93EF9369
:100D7000FC0181918030B9F360DFFBCFFF93EF93EB
:100D800068DFF1CFDF93CF93CDB7DEB72596A3DF32
:100D9000CF91DF9108950C94D5060C94D6060C944F
:100DA000D3060C94D70681E0089508950895089518
:100DB00081E008951F93CF93DF9300D000D01F925E
:100DC000CDB7DEB749835A832091660189819A8124
:100DD000211112C0662349F00E94C317182F682FF3
:100DE00089819A810E94681703C00E949717182F63
:100DF00069817A81812F04C00E94C31769817A8139
:100E00000F900F900F900F900F90DF91CF911F9147
:100E10000C942808FC014081518162817381848196
:100E20000C94DA060E942819811102C00E94A219AE
:100E30000C94CB060C94CD060C94D10608950E9418
:100E40008E120E941E072FEF84E39CE02150804009
:100E50009040E1F700C000000C94421B0F931F93D9
:100E6000CF93DF938C010E940A07EC01B8010E9426
:100E7000CF068823D9F0B801CE010E94730C8823D5
:100E8000A9F0C531FCE5DF0708F088C0C2308CE569
:100E9000D80770F4C115ECE5DE0709F05BC0F80176
:100EA000C281CC2309F4CAC00E941F07C0E0C6C09B
:100EB000F8018281882309F450C00E942819811109
:100EC00002C00E94A2190E943B1990E09093360242
:100ED00080933502FE01E350FC45E231F10530F428
:100EE000EA5AFF4F809135020C941B2680913502FF
:100EF000816027C0826025C0846023C0806121C0DA
:100F000080621FC080641DC080681BC084608860D0
:100F100018C08E7F16C08D7F14C08B7F12C08F7E4D
:100F200010C08F7D0EC08F7B0CC08F770AC08B7F67
:100F3000877F07C087FB222720F991E0922790FB4B
:100F400087F980933502809135020E943F190E94F3
:100F50008E12ACCFC130DC4539F0C801DF91CF91A2
:100F60001F910F910C94D806F801C281CC2309F48B
:100F700065C080910802C82FC095C170C0FB80F980
:100F800080930802CC2329F086EF93E00E94290683
:100F90008DCF84EE93E00E94290650C0CC3D8CE5B5
:100FA000D80739F4F801C281CC2309F447C080E0A6
:100FB0000DC0CD3DECE5DE0760F0CD3D8CE5D807FA
:100FC00091F5F801C281CC23C9F182E00E9447214A
:100FD0006DCFC631DC4509F60E944318282FF80171
:100FE00082814091000150910101882379F02A7A91
:100FF00091E009F490E090933401911102C069E20C
:1010000001C065E3CA010E942B1A0AC08091340115
:10101000811102C069E201C065E3CA010E94361A6B
:101020000E948F1843CFCE3DDC4509F096CFF801E2
:10103000C281CC2319F00E94A21938CF8C2FDF91E6
:10104000CF911F910F91089580E090E00895089549
:101050009FE0799FF00111249AE5899FE00DF11D31
:101060001124E60FF11DEE0FFF1FE853FE4F85918F
:1010700094910895880F991FFC01E95FFB4F8591BA
:1010800094910895CF93DF930E9428080E94F90954
:10109000EC01811520E59207F0F5811530E4930706
:1010A00008F024C1883E910500F5803E910508F0C6
:1010B0009CC1883A910570F4853A910508F09FC06B
:1010C0008130910509F491C108F442C1049708F0F8
:1010D0008CC13EC18F3B910508F49CC0803C9105BA
:1010E00008F436C1805C9109F4C0811540E2940790
:1010F00058F4C11581E0D80708F077C1C03FD10589
:1011000008F426C1D06571C1811520E3920708F06B
:10111000E4C09F70DEC0811535E5930708F044C038
:10112000811544E5940708F0F8C0C11582E5D80799
:1011300008F5C11521E5D20708F0DBC08C2F8370BC
:1011400021E030E002C0220F331F8A95E2F73C68AD
:10115000CE0174E0969587957A95E1F78370382BE8
:10116000CF70C695C69580E2C89FE0011124C22BBE
:10117000D32B3BC12C2F26952695CE018370992722
:10118000C115D34508F0BAC040E2249F9001112454
:10119000C1E0D0E002C0CC0FDD1F8A95E2F72C2B16
:1011A0003D2BE901DC6821C1811549E59407A0F4D4
:1011B000C11588E5D80708F0B5C0C11526E5D207E6
:1011C00008F0C6C08C2F0E94760A8F71C82FD0E01D
:1011D000DC2FCC27D06209C181153AE5930708F4CA
:1011E000A6C090568115904208F0B2C08D2F8F7125
:1011F0000E94760ADD27D0628F71D82BF6C0853A1F
:10120000910509F4A8C0863A910509F0A7C0C2E883
:10121000D0E4EBC0883A910509F4A3C0893A91055E
:1012200009F4A2C08A3A910509F4A1C08B3A91054C
:1012300009F4A0C08C3A910509F49FC08B3B91053D
:1012400009F49EC08C3B910509F49DC08D3A91052F
:1012500009F49CC0803B910509F49BC08E3A91052E
:1012600009F49AC08F3A910509F499C0813B910520
:1012700009F498C0823B910509F497C0833B91051E
:1012800009F496C0843B910509F495C0853B91050E
:1012900009F494C0863B910509F493C0873B9105FE
:1012A00009F492C0883B910509F491C0893B9105EE
:1012B00009F490C08D3B910509F48FC08E3B9105D8
:1012C00009F48EC08A3B910509F48DC0C0E0D4E4D6
:1012D0008CC00E943A08EC0188C09927D3FF03C054
:1012E000EC01D86C82C0EC01D06C7FC0DF70D06A9A
:1012F0007CC0DC2FCC27C16FD06A77C040E2249F2E
:1013000090011124C1E0D0E002C0CC0FDD1F8A950E
:10131000E2F7C22BD32BDA6868C0D82FCC27C46F72
:10132000D06A63C0DC2FCC27C06FD06A5EC08F70DC
:101330000E94760A94E0D695C7959A95E1F7CF700A
:10134000D0E0DC2FCC27D06A8F70806EC82B4DC0C8
:10135000C0E0D0E04AC0C1E8D0E447C0C3E8D0E470
:1013600044C0C2EED4E441C0C9EED4E43EC0CAEEEB
:10137000D4E43BC0C5EBD4E438C0C6EBD4E435C0FC
:10138000C3EBD4E432C0C4EBD4E42FC0C7EBD4E445
:101390002CC0CCECD4E429C0CDECD4E426C0C3E806
:1013A000D5E423C0CAE8D5E420C0C2E9D5E41DC015
:1013B000C4E9D5E41AC0C1E2D6E417C0C3E2D6E45A
:1013C00014C0C4E2D6E411C0C5E2D6E40EC0C6E241
:1013D000D6E40BC0C7E2D6E408C0CFE6D4E405C02B
:1013E000C0E7D4E402C0CAE2D6E4CE01DF91CF91D7
:1013F00008958238910549F1B0F48133910509F4DB
:1014000058C048F48932910509F44EC08A329105DA
:1014100009F454C008958533910509F440C0893317
:10142000910599F00895833E910529F138F4803EA5
:10143000910591F0823E9105A1F00895863E9105B7
:10144000F9F0873E910531F108952091350220FD94
:101450003AC021FD38C008958091350280FD35C025
:1014600032C08091350282FF32C08091350284FD06
:1014700030C083EE39C08091350282FD28C0F5CF9F
:101480008091350283FF27C08091350284FD21C001
:1014900087EE2AC08091350283FD1DC0F5CF809173
:1014A000350285FD1AC01BC08091350285FD17C02D
:1014B00014C08091350286FD14C015C0809135029C
:1014C00086FD11C00EC080EE0FC089E30DC082EE14
:1014D0000BC080E009C086EE07C089E205C085E345
:1014E00003C08AE201C081E390E008959091350243
:1014F00092FF0DC0282F2871283019F4877F84604F
:1015000006C0282F2471243011F48B7F886093FF4C
:101510000DC0282F2871283119F4877E846106C0F8
:10152000282F2471243111F48B7E886194FD877EED
:101530000895E82FF0E0EE0FFF1FEB5CFE4F808177
:1015400091810895CF92DF92EF92FF920F931F93B4
:10155000CF93DF9387E194E00E94290685E3E82E8C
:1015600081E0F82EC0E0D0E092E1C92E94E0D92EBF
:1015700009E014E0DF93CF93DF92CF920E94C2067E
:101580008FE094E00E942906F701819191917F01FB
:101590000E940E199F938F931F930F930E94C20670
:1015A00087E094E00E94290621968DB79EB70896A1
:1015B0000FB6F8949EBF0FBE8DBFC630D105D1F6D1
:1015C000DF91CF911F910F91FF90EF90DF90CF901F
:1015D0000895ACE1B1E041E050E026E02A0F8D91A2
:1015E000E82FE295EF70F0E031A18F70BA0102C0F0
:1015F000660F771F8A95E2F7CB01962F909593237C
:1016000091A392A1892B82A32A13E9CFADE0B1E087
:1016100041E050E02FE02A0F8D91E82FE295EF7026
:10162000F0E031A18F70BA0102C0660F771F8A9572
:10163000E2F7CB01962F9095932391A392A1892B4A
:1016400082A32A13E9CFE1E4F1E0A5E3B1E011922E
:1016500011921D921D9271E0ED34F707C1F786E0FB
:101660000E94CB0B0C9412075F926F927F928F9225
:101670009F92AF92BF92CF92DF92EF92FF920F9321
:101680001F93CF93DF930CE111E0A1E4B1E0612C53
:10169000EE24E394F12C5D018D909C9011971196AE
:1016A0001C921E92E80189918E01E82FE295EF705D
:1016B000F0E091A18F70A70101C0440F8A95EAF76D
:1016C000892F842B81A382A1542E5094852182A33B
:1016D000D0EADA95F1F78DE0C82E81E0D82E80E0CF
:1016E00090E0E60179906E01272D22952F7030E071
:1016F000E90168A12D913C91119770E0D72DDF7021
:1017000002C075956795DA95E2F760FD08C0B701EC
:10171000082E02C0660F771F0A94E2F702C060E04D
:1017200070E0262B372B11963C932E9301968F3029
:101730009105B9F681A1D52DD823D1A382A1482B3B
:1017400042A3129681E0F501208131818216930631
:1017500009F480E0682AF1E0AD34BF0709F09BCFBF
:10176000262D46E065E371E081E491E00E94CC0B18
:101770000E941A07862DDF91CF911F910F91FF9044
:10178000EF90DF90CF90BF90AF909F908F907F9021
:101790006F905F9008950895FF920F931F93CF93DA
:1017A000DF93F82E092F162FD72FC42F222349F0AD
:1017B00081E080934F010E94DA1A90934E0180934A
:1017C0004D0180914F018823D9F080914D01909176
:1017D0004E010E94F21A069798F0EF2DF02FA12FDC
:1017E000BD2F80E090E04C2F50E08417950734F433
:1017F000219131912D933D930196F7CF10924F0196
:10180000DF91CF911F910F91FF9008950F931F9338
:10181000CF93DF93C62FD42F022FFC018281882320
:10182000C9F0609352010E94DA1A9093510180939B
:10183000500180E28C0F883008F050C0C77081E002
:1018400001C0880FCA95EAF7DF91CF911F910F91E0
:101850000C941D1010915201161330C0809150014C
:10186000909151010E94F21A883C910538F5C0E22E
:10187000CD0F1D17B9F080E2810F883040F417704A
:1018800081E001C0880F1A95EAF70E942410C83041
:1018900048F481E09D2F977001C0880F9A95EAF770
:1018A0000E941D10802F0E940A10C830B8F4D77013
:1018B00081E001C0880FDA95EAF70AC080E28C0F58
:1018C000883060F4C77081E001C0880FCA95EAF7DC
:1018D000DF91CF911F910F910C942410DF91CF9144
:1018E0001F910F9108959C01CB01203F4CE53407D7
:1018F000F9F078F4283DFCE53F07B9F0293D4CE5C7
:10190000340711F1273D3C4531F526E241EE61EE09
:101910001EC0223FFCE53F0799F070F0233F3C4595
:10192000D1F427E245EE66EE12C027E245EE0EC086
:1019300026E241EE60EE0BC027E245EE64EE07C002
:1019400026E241EE62EE03C028E241E065EE0E942D
:10195000060C80E00895FC018281882319F0109222
:101960005201089581E008959093580180935701A2
:101970000895E0915701F0915801309721F00190BE
:10198000F081E02D099480E00895EF92FF921F937B
:10199000CF93DF93FC01A0915701B09158011097AC
:1019A00009F442C080910C01882341F080913502F6
:1019B00087FF04C08081818385E08083EF011296D8
:1019C000ED91FC911397CE0109958091080282FF59
:1019D0002BC080FF04C086E394E00E94290618E033
:1019E00080E3E82E84E0F82E8091080280FF0BC08F
:1019F00088811F928F93FF92EF920E94C2060F90F0
:101A00000F900F900F90115021961111EDCF8091F2
:101A1000080280FF09C08EE294E0DF91CF911F9110
:101A2000FF90EF900C942906DF91CF911F91FF90CA
:101A3000EF90089520915501309156018217930738
:101A400071F09093560180935501E0915701F09108
:101A50005801309721F00680F781E02D0994089510
:101A600020915301309154018217930771F09093A4
:101A7000540180935301E0915701F0915801309740
:101A800021F00084F185E02D0994089585B78068E0
:101A900085BF85B7806885BF0895089508950C9423
:101AA0004E0D08950C94510D0E94460D0E944D0D4F
:101AB0000C944F0D81E008950E94D11A0E94E90A0A
:101AC0000E94741B0C94520DCF93C82F8091080272
:101AD00082FF1EC080FF04C08FE494E00E942906AC
:101AE0008091080280FF0CC01F92CF938AE494E09B
:101AF0009F938F930E94C2060F900F900F900F90AC
:101B00008091080280FF04C088E494E00E942906C6
:101B10008C2FCF910C941C074F925F927F928F92E3
:101B20009F92AF92BF92CF92DF92EF92FF920F936C
:101B30001F93CF93DF93CDB7DEB72A970FB6F894F4
:101B4000DEBF0FBECDBF0E94340B0E945A0D811123
:101B500011C08FEF89838A831B820E94DA1A816009
:101B6000782F9D838C8349815A816B818D810E945E
:101B7000480E57C09AE5C92E91E0D92E00E010E03A
:101B8000AA24A394B12C702E802F0E94990A4C0194
:101B9000F601419051906F01482659264114510495
:101BA00031F40F5F1F4F0630110569F7D2CF8091D6
:101BB000080281FD0E94A20A20E030E07501022E99
:101BC00002C0EE0CFF1C0A94E2F7C70184219521A4
:101BD000892B09F12E837F828E209F2091E0892816
:101BE00009F490E098870E94DA1A8160782F9A872A
:101BF00089874E815F8168858A850E94480E000F23
:101C0000111FF801E65AFE4F80819181E826F926DE
:101C1000F182E08206C02F5F3F4F2F30310571F611
:101C2000C0CF109159010E94B90C1817D9F00E9429
:101C3000B90C809359012A960FB6F894DEBF0FBEF7
:101C4000CDBFDF91CF911F910F91FF90EF90DF906B
:101C5000CF90BF90AF909F908F907F905F904F906C
:101C60000C94640D2A960FB6F894DEBF0FBECDBF5C
:101C7000DF91CF911F910F91FF90EF90DF90CF9068
:101C8000BF90AF909F908F907F905F904F900895FE
:101C9000CF93DF93CDB7DEB72B970FB6F894DEBFA7
:101CA0000FBECDBF4F83588769877A878B87DE0148
:101CB000119686E0FD0111928A95E9F785E0FE0113
:101CC000379601900D928A95E1F749815A816B818F
:101CD0007C818D819E810E9438152B960FB6F894D9
:101CE000DEBF0FBECDBFDF91CF910895FC01808193
:101CF00091810E9404180895CF93DF931F92CDB76E
:101D0000DEB7882309F423C1682F8238C1F40E940A
:101D1000B90C81FD1CC169E3809100019091010122
:101D20000E942B1A0E948F182FEF81EE94E0215011
:101D300080409040E1F700C0000069E319C083389B
:101D400011F50E94B90C80FD02C163E5809100018C
:101D5000909101010E942B1A0E948F182FEF81EEA3
:101D600094E0215080409040E1F700C0000063E51E
:101D700080910001909101010E94361A0F90DF912D
:101D8000CF910C948F188438C1F40E94B90C82FD55
:101D9000DEC067E480910001909101010E942B1A3E
:101DA0000E948F182FEF81EE94E0215080409040E8
:101DB000E1F700C0000067E4DBCF8CEF860F813ACB
:101DC00070F4862F69830E94FD1D69818111BFC057
:101DD00080910001909101010E942B1ACFCF80E2E7
:101DE000860F883048F4677081E001C0880F6A95DB
:101DF000EAF70E944618C2CF8BE5860F833088F43D
:101E0000653A29F0663A31F083E890E005C081E850
:101E100090E002C082E890E00F90DF91CF910C94A7
:101E20001A0D88E5860F873108F091C0683A09F4E9
:101E300045C0693A09F445C06A3A09F445C06B3AAD
:101E400009F445C06C3A09F445C06B3B09F445C040
:101E50006C3B09F445C06D3A09F445C0603B09F498
:101E600045C06E3A09F445C06F3A09F445C0613B7C
:101E700009F445C0623B09F445C0633B09F445C021
:101E8000643B09F445C0653B09F445C0663B09F471
:101E900045C0673B09F445C0683B09F445C0693B50
:101EA00009F445C06D3B09F445C06E3B09F445C0DB
:101EB0006A3B09F445C080E090E044C082EE90E0C7
:101EC00041C089EE90E03EC08AEE90E03BC085EBD9
:101ED00090E038C086EB90E035C083EB90E032C0F4
:101EE00084EB90E02FC087EB90E02CC08CEC90E06E
:101EF00029C08DEC90E026C083E891E023C08AE8F9
:101F000091E020C082E991E01DC084E991E01AC00F
:101F100081E292E017C083E292E014C084E292E092
:101F200011C085E292E00EC086E292E00BC087E22B
:101F300092E008C08FE690E005C080E790E002C024
:101F40008AE292E00F90DF91CF910C94300D0F90C8
:101F5000DF91CF910895882309F45BC0682F823800
:101F600079F40E94B90C81FF54C069E380910001AB
:101F7000909101010E942B1A0E948F1869E310C0F2
:101F80008338B1F40E94B90C80FF43C063E58091AF
:101F90000001909101010E942B1A0E948F1863E5A5
:101FA00080910001909101010E94361A0C948F18C3
:101FB000843879F40E94B90C82FF2BC067E48091C9
:101FC0000001909101010E942B1A0E948F1867E472
:101FD000E7CF8CEF860F813A18F380E2860F8830C6
:101FE00048F4677081E001C0880F6A95EAF70E94A3
:101FF0004C18DCCF8BE5860F833020F480E090E036
:102000000C941A0D685A673120F480E090E00C942B
:10201000300D0895CF93C82F0E947C0EC93349F428
:102020002FEF83EC99E0215080409040E1F700C011
:1020300000008C2FCF910C94AB0F882321F00E94CD
:1020400046180C948F180895882321F00E944C188C
:102050000C948F1808954F925F926F927F92BF9267
:10206000CF92DF92EF92FF920F931F93CF93DF9364
:102070007C01062FC72FFC01158112951F70D2819C
:10208000D1110E9463180E943C18882379F0DD2347
:1020900069F080E2800F883048F082E00E94DA1810
:1020A0000E943C1891E0B82EB92601C0B12CCC2E6C
:1020B000C2948FE0C822D12CF601E859FF4F0C944E
:1020C0001B268C2F807FCF70882311F0C295C07F94
:1020D000DD2399F0CC2309F481C180E2800F8830A0
:1020E00010F0011104C08C2F0E94461803C08C2FE1
:1020F0000E9456180E948F1871C1802F0E94AB0F4A
:10210000CC2309F490C180E2800F883010F00111D7
:1021100004C08C2F0E944C1803C08C2F0E945C18A6
:102120000E948F1880C18C2F807FCF70803211F079
:10213000C295C07F002319F00130C9F022C0DD2311
:1021400071F0112341F0113031F40E9476188C2B7C
:102150000E947C1868C10E9476188C2BF8C011234D
:1021600019F0113009F45FC10E94851818C0DD23F1
:1021700021F0163008F057C10EC0153008F053C1D9
:102180000EC0DD2351F0112331F0F701858180FF6E
:1021900025C18F7085838C2FDAC0111130C18C2F2F
:1021A000DCC08C2F86958695837090E0009719F09F
:1021B000019761F038C1DD2321F0802F9C2F9370AF
:1021C00002C080E090E00E941A0D3DC1DD2321F0A5
:1021D000802F9C2F937002C080E090E00E94300D11
:1021E00032C18C2F837009F04BC0D11128C1202F30
:1021F000229526952770220F220F602F6F70862F51
:1022000090E0A0E0B0E02C013D01022E04C0440C9F
:10221000551C661C771C0A94D2F704FF10C08FE08F
:1022200090E0A0E0B0E004C0880F991FAA1FBB1F78
:102230002A95D2F780959095A095B09503C080E03F
:1022400090E0DC01C695C695C370D0E0BC01CD011D
:102250006429752986299729C230D10559F0C330E0
:10226000D10559F0219719F00E947D16E8C00E940F
:102270006B16E5C00E948F16E2C00E946916DFC08F
:10228000DD2319F08C2F817001C08695882309F415
:10229000D6C0202F229526952770220F220F602F5F
:1022A0006F70862F90E0A0E0B0E02C013D01022E7F
:1022B00004C0440C551C661C771C0A94D2F704FF1A
:1022C00010C08FE090E0A0E0B0E004C0880F991F3C
:1022D000AA1FBB1F2A95D2F780959095A095B0951F
:1022E00003C080E090E0DC01C695C695C370D0E0E5
:1022F000BC01CD016429752986299729C230D105F1
:1023000059F0C330D10559F0219719F00E944317B5
:1023100096C00E94311793C00E94551790C00E942A
:10232000A4168DC0802F90E0FC01E05EF109E5313C
:10233000F10508F04FC0E858FF4F0C941B260F70B2
:102340008C2F8F71DD2331F00E94CA16802F0E94DE
:102350001D1069C00E94EB16802F0E94241063C0DC
:10236000DD2341F0153008F05EC08C2F8F710E9484
:10237000101759C0163008F056C0F7CFDD2339F0DA
:102380008C2F8F710E94CA164EC0DD23C9F38C2F8B
:102390008F710E94EB1647C0DD2329F08C2F8F71BF
:1023A0000E94B51640C00E94B0163DC0DD2349F022
:1023B000CF718C2F0E94CA1663E08C2F0E94C51823
:1023C00032C081E00E94DA18123068F182E00E9487
:1023D000DA1829C0DD2331F0112391F2802F0E94F9
:1023E0007C0E21C0112399F2093349F4FFEF23EC4D
:1023F00089E0F15020408040E1F700C00000802FCC
:102400000E94AB0F10C04C2F4F70602FC7010E946D
:1024100024080E94DC1517C04C2F4F70602FC70195
:102420000E94270810C098E0C916D10441F05CF062
:10243000FAE0CF1AD10822E0C216D10420F40E949B
:10244000B90C0E941C07BB20F1F00E94381880FDD7
:102450001AC0F70112820E9432180E94CA16C701E0
:102460000E9451120E943218DF91CF911F910F915B
:10247000FF90EF90DF90CF90BF907F906F905F9034
:102480004F900C94EB16DF91CF911F910F91FF901D
:10249000EF90DF90CF90BF907F906F905F904F90C4
:1024A00008950F931F93CF93DF93EC018881998157
:1024B0002B813C81232BB9F09F3F11F48F3F99F082
:1024C000CE010E942E07882371F0688179818A816C
:1024D0000E940F188C010E9467170E946816B801AD
:1024E000CE010E942B10DF91CF911F910F91089583
:1024F0000E9463180E9473180E948F1880E090E079
:102500000E941A0D80E090E00C94300D8091000143
:10251000909101010E94411A0C9478120E94531864
:102520000C948612E92FE295EF70F0E03297EE30CE
:10253000F105B0F4E357FF4F0C941B26803F91F058
:1025400018F4803E68F40EC0843F51F40BC0803E06
:1025500048F0813F29F406C093FB882780F908954D
:1025600080E0089581E008950E9404180E9492126C
:102570000895CF93DF9300D000D01F92CDB7DEB780
:102580000F900F900F900F900F90DF91CF910895C3
:10259000CF93DF9300D000D000D0CDB7DEB7269622
:1025A0000FB6F894DEBF0FBECDBFDF91CF91089577
:1025B0001F93CF93DF93C091670116E0809168016C
:1025C000C81799F0D0E01C9FF0011D9FF00D112459
:1025D000E759FE4F408151816281738184819581E9
:1025E0000E94C8122196C770E9CFDF91CF911F9149
:1025F00008954091990150919A0160919B017091C9
:102600009C0180919D0190919E010C94C812809133
:102610009E0182958F7009F054C080919B018823A0
:1026200009F44FC080916701A09168016091990100
:1026300070919A0140919C0150919D01B6E08A17DA
:1026400009F43FC090E041155105C1F17F3F11F4FD
:102650006F3FA1F1B89FF001B99FF00D1124E75928
:10266000FE4F218172132AC02081621327C022816C
:10267000211124C0238134812417350710F42150FF
:102680003109241B350B283C3105C0F420919E01F3
:102690002F70206120939E0126E0289FF001299F42
:1026A000F00D1124E259FE4F80818F70806180838C
:1026B00089E991E00E9451120C94D812019687701A
:1026C000BECF0895CF92DF92EF92FF920F931F93A8
:1026D000CF93DF93CDB7DEB762970FB6F894DEBF26
:1026E0000FBECDBF8C0185E0F801DE011D96019083
:1026F0000D928A95E1F7D8014C9111965C91119752
:1027000012966C9112971396CD90DC90149730919D
:10271000990170919A0180919C0190919D0100977F
:1027200009F46BC17F3F19F43F3F09F466C1E090A3
:102730009B01EE2009F4C0C020919E01C816D90665
:1027400028F0F601E81BF90BCF0104C080959095A5
:102750008C0D9D1DFF24F394883C910578F0F12C9D
:10276000207F09F0C6C07C2DD98AC88A89890E9439
:10277000B91289E991E00E945112B1C0822F807F85
:1027800009F046C0751314C0341312C0611110C093
:102790002F70206120939E010E94F91289E991E037
:1027A0000E94511280919E01D80115968C932EC0E3
:1027B000CD2819F15F3F11F44F3FF9F0F62E61116A
:1027C0001CC0809167012091680136E0821709F4EE
:1027D0005AC090E0389FF001399FF00D1124E7595D
:1027E000FE4F7181571306C07081471303C0728179
:1027F000711103C001968770E9CFF62E662309F4A4
:1028000027C180919E01816080939E01F12C20C19F
:10281000751308C0341306C0611104C080919E0175
:10282000D801C3C04D875E878D859E856A8B0E94C7
:10283000B4126A898823E1F16623D1F120919E01C7
:10284000822F82958F7090E0029774F080919901A9
:1028500090919A0198878F831986DB86CA862C8788
:10286000CE0107960E94511286E0F801A9E9B1E075
:1028700001900D928A95E1F70E9407130E94F912C8
:10288000FF24F394E5C04D875E878D859E850E9469
:102890000418292F22952F7030E0223031050CF0DA
:1028A000CBC09F7009F0C5C0805E883008F4D0C0EE
:1028B000C8010E945112E4CFC816D90608F453C0CB
:1028C000F601E81BF90BCF01883C910508F450C0D4
:1028D000F12C7C2DD98AC88A89890E94B912E9E92C
:1028E000F1E086E0DF011D928A95E9F70E94F91276
:1028F000AFC0751314C0341312C0611110C08091A1
:102900009E01F8018583C8010E94511286E0E9E921
:10291000F1E0DF011D928A95E9F7FE2C99C04D8701
:102920005E878D859E856A8B0E94B4126A89882392
:1029300009F4BECF662309F4BBCF20919E01822FFC
:1029400082958F7090E002970CF48ECF8091990160
:1029500090919A019A8389831B82DD82CC822E8397
:10296000CE0101967FCF809590958C0D9D1DACCFAB
:10297000F62E662309F49CCF75132EC034132CC099
:1029800020919E0120FD1FC0822F82958F70D9F06B
:10299000D80115962C9315978F3049F08F5F982F9B
:1029A0009295907F822F8F70892B15968C93C801FA
:1029B0000E94511286E0F801A9E9B1E001900D9260
:1029C0008A95E1F793CF86E0F801A9E9B1E001909B
:1029D0000D928A95E1F73CC04D875E878D859E8577
:1029E0000E94B412811140CF80919E01816080933A
:1029F0009E01C8010E9451122BC0662309F458CFD2
:102A00004D875E878D859E850E94B412F82E88239F
:102A100009F44ECF86E0F801A9E9B1E001900D92EA
:102A20008A95E1F789E991E00E94760E0E940713EA
:102A30005DCF811139CF0CC0243031050CF038CF77
:102A40009F7009F431CFF8019581907F09F02CCF68
:102A50008F2D62960FB6F894DEBF0FBECDBFDF910B
:102A6000CF911F910F91FF90EF90DF90CF9008953D
:102A70001F93CF93DF93CDB7DEB72C970FB6F894A3
:102A8000DEBF0FBECDBF4F83588769877A878B879C
:102A90009C87CE0107960E946213882369F08F817C
:102AA00098852A853B85232BF1F19F3F09F063C070
:102AB0008F3F09F060C037C086E0FE013796DE0127
:102AC000119601900D928A95E1F76F817885EA85DC
:102AD000FB85309741F17F3F11F46F3F21F1209149
:102AE000680130E0C901019687709927409167011C
:102AF00050E08417950709F447C069837A83FD8302
:102B0000EC8396E0929FD001939FB00D1124A759BA
:102B1000BE4FFE01319601900D929A95E1F7809398
:102B200068010E94D81216E08091670190916801B7
:102B30008917C1F1189FC001112487599E4F0E9427
:102B40006213882379F1E09167011E9FF00111243F
:102B5000E759FE4F40815181628173818481958163
:102B60000E94C8128091670190E0019687709927B2
:102B700080936701D9CF4F81588569857A858B8588
:102B80009C850E94C812CFCF0E948E1210926801BD
:102B900010926701E9E9F1E086E0DF011D928A9574
:102BA000E9F7C1CF2C960FB6F894DEBF0FBECDBFAC
:102BB000DF91CF911F910895EF92FF920F931F9392
:102BC000CF93DF938C01892B09F46CC0F12CEE2498
:102BD000E394E8012196F8018491843740F484302D
:102BE00008F051C0813081F0823019F15BC0853727
:102BF00009F444C0A8F19CE7980F903708F052C040
:102C00008F770E94AB0F41C00E5F1F4FFE01C49132
:102C100080E28C0F883048F4C7708E2D01C0880F79
:102C2000CA95EAF70E94661814C08C2F0E947C0E89
:102C30002DC00E5F1F4FFE01C49180E28C0F8830C3
:102C400058F4C7708E2D01C0880FCA95EAF70E940C
:102C50006C180E948F181AC08C2F0E94AB0F16C0E0
:102C60000E5F1F4FFE01C491CC2381F08FE99FE0DE
:102C70000197F1F700C00000C150F6CF0E5F1F4F63
:102C8000FE01F49003C00E947C0E8E018F2D8823DC
:102C900009F49FCFEFE9FFE03197F1F700C00000A2
:102CA0008150F5CFDF91CF911F910F91FF90EF9061
:102CB000089508950C9459160E945A166093DF01E6
:102CC0007093E0018093E1019093E2010C947812FB
:102CD00008950C945C160F931F930091DF011091DF
:102CE000E0012091E1013091E201602B712B822BF8
:102CF000932B1F910F910C945C160F931F930091CF
:102D0000DF011091E0012091E1013091E2016023A7
:102D10007123822393231F910F910C945C160F93C0
:102D20001F930091DF011091E0012091E1013091AA
:102D3000E20160277127822793271F910F910C943E
:102D40005C1608950C94A1160E94A2166093DB01F4
:102D50007093DC018093DD019093DE010C94781276
:102D600060E070E0CB010C94A4160F931F9341E038
:102D700050E060E070E08A019B0104C0000F111F69
:102D8000221F331F8A95D2F7C901B8011F910F91F5
:102D90000C94A4160F931F9341E050E060E070E0A4
:102DA00004C0440F551F661F771F8A95D2F7809184
:102DB000DB019091DC01A091DD01B091DE018A017F
:102DC0009B01082B192B2A2B3B2BC901B8011F9102
:102DD0000F910C94A4160F931F9341E050E060E014
:102DE00070E004C0440F551F661F771F8A95D2F705
:102DF00040955095609570958091DB019091DC0134
:102E0000A091DD01B091DE018A019B010823192305
:102E10002A233B23C901B8011F910F910C94A416DA
:102E20000F931F9341E050E060E070E004C0440F56
:102E3000551F661F771F8A95D2F78091DB0190910D
:102E4000DC01A091DD01B091DE018A019B01082720
:102E500019272A273B27C901B8011F910F910C940C
:102E6000A4160F931F930091DB011091DC012091B8
:102E7000DD013091DE01602B712B822B932B1F9192
:102E80000F910C94A4160F931F930091DB011091E6
:102E9000DC012091DD013091DE016023712382236A
:102EA00093231F910F910C94A4160F931F930091DD
:102EB000DB011091DC012091DD013091DE01602702
:102EC0007127822793271F910F910C94A4160895C0
:102ED0002FE0929F800D1124A82FA695A695A69568
:102EE000877051E001C0550F8A95EAF785E0A89FE9
:102EF000D001112420E030E070E0F901EA0FFB1F5F
:102F0000E156FE4F4081CB01022E02C09695879577
:102F10000A94E2F781709927819584278523842775
:102F200080832F5F3F4F2530310539F708952FE01B
:102F3000929F800D1124682F669566956695982F4F
:102F4000977085E0689FB001112440E050E080E078
:102F5000FA01E60FF71FE156FE4F208130E0092EFF
:102F600002C0369527950A94E2F721703327042E84
:102F700001C0220F0A94EAF7822B4F5F5F4F453062
:102F8000510531F70895BF92CF92DF92EF92FF92F1
:102F90000F931F93CF93DF938C01C090DF01D090EC
:102FA000E001E090E101F090E2018091DB0190917D
:102FB000DC01A091DD01B091DE01C82AD92AEA2AFC
:102FC000FB2ACFE1D0E0D701C6010C2E04C0B69594
:102FD000A795979587950A94D2F780FF07C0BC2ED6
:102FE000B8018C2F0E944208019719F4219758F7D5
:102FF000B12C8B2DDF91CF911F910F91FF90EF900E
:10300000DF90CF90BF900895CF93DF93EC010E94A3
:10301000C317BE010E944208DF91CF9108951F930C
:10302000CF93DF93EB0190916601992321F0CB01BF
:103030000E94041813C0882349F0CB010E94C317D3
:10304000182F682FCE010E94681704C0CB010E9480
:103050009717182FBE01812F0E944208DF91CF9150
:103060001F9108958091E301859585958595089533
:103070008091E301877008959091E301977081E05A
:1030800009F480E008958091070208959091070265
:10309000892B8093070208958095909107028923D8
:1030A00080930702089510920702089590910602F6
:1030B000892B8093060208958095909106028923BA
:1030C00080930602089510920602089590910502D9
:1030D000892B80930502089580959091050289239C
:1030E0008093050208951092050208958091E401ED
:1030F000089508950C9479189091E401981721F09F
:103100008093E4010C947A1808958091E401882357
:1031100029F01092E40180E00C947A180895E0916F
:103120000001F0910101809107028083E09100018C
:10313000F0910101908180910602892B8083E091BA
:103140000001F0910101908180910502892B80831B
:103150008091E401882381F0E0910001F091010168
:103160009081892B808380910001909101010E94C0
:10317000A41981110E94851880910001909101018C
:103180000C94C50C08950C94C21898E0899F900186
:103190001124262B2093E3010E94CA168091E3019B
:1031A0008595859585950C94C3181092E30180E070
:1031B0000C94C3182091E301809582238093E3014E
:1031C000982F977079F430E0482F082E000C550B9B
:1031D0002417350739F08595859585950E94EB165E
:1031E0000C94D5180895909333018093320108957B
:1031F0008295982F9C7C392F36953695282F2373EE
:1032000044E0249FC0011124932F982B292F2A7A60
:103210002695892F8575880F822B08951F93CF934C
:10322000DF931F92CDB7DEB799830E94F818182F4D
:103230009981892F0E94F818212F30E0322F222700
:10324000A901482BCA010F90DF91CF911F910895DA
:1032500080E090E00E94292621E08D3E9E4F09F0FB
:1032600020E0822F089582E090E00C94212683E0F4
:1032700090E00C94212684E090E00C942126682FA5
:1032800084E090E00C942F26AB01BC018FE090E02D
:103290000C944126AB01BC0183E190E00C944126E3
:1032A00060E070E0CB010C944A1960E070E0CB0163
:1032B0000E9444190C9450196DEE7EEF80E090E06E
:1032C0000E944D2660E082E090E00E942F2660E0A0
:1032D00083E090E00E942F261092DF011092E0011F
:1032E0001092E1011092E20160E084E090E00E941F
:1032F0002F2660E085E090E00E942F2660E086E0C7
:1033000090E00E942F266FEF87E090E00E942F262A
:1033100040E050E0BA0188E090E00E94412660E081
:103320008DE090E00E942F2640E050E0BA0188E155
:1033300090E00E94412660E087E190E00E942F2605
:103340000C9455190C945C19FC01329680910C0177
:10335000882331F08091350287FF02C09EE101C0D1
:1033600096E080E0915028F021912223D9F38F5FDD
:10337000F9CF08959C01FC0132969FEF80E04191C6
:10338000461789F09F3F19F4411101C0982F8F5FB4
:103390008630A9F79F3F39F0F901E90FF11D97FD3C
:1033A000FA95628308950895FC013296089620816B
:1033B000261301C010823196E817F907C1F7089566
:1033C000262F2695269526952E3170F4FC01E20FC6
:1033D000F11D677021E030E001C0220F6A95EAF725
:1033E0008281282B228308958091080280FF0CC0DF
:1033F0001F926F9380E894E09F938F930E94C20680
:103400000F900F900F900F900895262F26952695D8
:1034100026952E3178F4FC01E20FF11D677021E052
:1034200030E001C0220F6A95EAF7209582812823B7
:10343000228308958091080280FF0CC01F926F9331
:1034400082E694E09F938F930E94C2060F900F90A4
:103450000F900F90089520910C01222329F02091C4
:10346000350227FD0C94E0190C94BA1920910C0137
:10347000222329F02091350227FD0C94051A0C9483
:10348000D41920910C01FC013296222331F0809155
:10349000350287FF02C08EE101C086E0DF011D9288
:1034A0008A95E9F7089508950C94531A0E94541AC6
:1034B00080913B02843049F11092090220E488E1B6
:1034C00090E00FB6F894A895809360000FBE20930B
:1034D000600080E00E941C070E94541A83B7817F1D
:1034E000846083BF83B7816083BF7894889583B7F6
:1034F0008E7F83BF0FB6F894A89580916000886195
:1035000080936000109260000FBE089508950895A2
:10351000CF930E94861A0E94340B0E94871AC0E043
:103520008C2F0E94990A892B29F4CF5FC630C1F7EE
:1035300080E001C081E0CF91089508950C949D1A18
:103540000E948E120E94B90C0E941C070C949E1AB5
:103550001F920F920FB60F9211248F939F93AF93E8
:10356000BF9380910902811113C080913102909123
:103570003202A0913302B09134024196A11DB11DD7
:103580008093310290933202A0933302B0933402BD
:10359000BF91AF919F918F910F900FBE0F901F9091
:1035A000189582E084BD93E095BD9AEF97BD809316
:1035B0006E0008952FB7F8948091310290913202F5
:1035C000A0913302B09134022FBF08952FB7F89421
:1035D00060913102709132028091330290913402F5
:1035E0002FBF0895CF92DF92EF92FF920F931F9318
:1035F0002FB7F8944091310250913202609133021A
:10360000709134022FBF6A017B01EE24FF248C01EC
:1036100020E030E0C016D106E206F30610F4415077
:1036200051099A01281B390BC9011F910F91FF9075
:10363000EF90DF90CF90089578941F920F920FB67D
:103640000F9211248F939F93AF93BF938091310278
:1036500090913202A0913302B09134020196A11DE3
:10366000B11D8093310290933202A0933302B09344
:103670003402BF91AF919F918F910F900FBE0F9029
:103680001F901895F89481E08093E00080E2809389
:10369000D800E9ECF0E010828FE19EE40197F1F7A9
:1036A00000C000001DBA109268001CBC10BE1FBAFA
:1036B00010927A0010926E0010926F0010927100BA
:1036C000109272001082ECEBF0E0108214B817B880
:1036D0001AB81DB810BA108215B818B81BB81EB8A1
:1036E00011BA0C94003F08950E942819811102C05C
:1036F0000E94A2190E943319809308020E943B196C
:1037000090E090933602809335020E943719682F1B
:1037100070E080E090E00C946916CF93C82F1F9260
:103720008F9384EA94E09F938F930E94C20681E076
:1037300090E0A0E0B0E0BC01CD0104C0660F771FAF
:10374000881F991FCA95D2F70E9469160F900F9093
:103750000F900F90CF910C948E12CF93482F50E082
:10376000FA013597EF33F10508F03BC2E556FF4FFC
:103770000C941B2686E19AE00E94290682E599E0D6
:103780000E9429060E9437191F928F938FE499E0B7
:103790009F938F930E94C2068DE499E00E942906B0
:1037A0000E943319C82F8AE399E00E9429061F92CC
:1037B000CF9385E399E09F938F930E94C20683E3A2
:1037C00099E00E94290689E299E00E9429068C2F3F
:1037D00081701F928F9386E299E09F938F930E944E
:1037E000C20684E299E00E9429068AE199E00E94DB
:1037F0002906C1FB882780F91F928F9387E199E002
:103800009F938F930E94C20685E199E00E9429064A
:1038100089E099E00E942906C2FB882780F91F925F
:103820008F9386E099E09F938F930E94C20684E075
:1038300099E00E9429068BEF98E00E942906C3FBBD
:10384000CC27C0F91F92CF9388EF98E09F938F9376
:103850000E94C20686EF98E00E9429060E943B194A
:10386000C82F82EE98E00E9429061F92CF938DED1B
:1038700098E09F938F930E94C2068BED98E00E9480
:10388000290682EC98E00E9429068C2F81701F92F5
:103890008F938FEB98E09F938F930E94C2068DB712
:1038A0009EB780960FB6F8949EBF0FBE8DBF8DEB6E
:1038B00098E00E94290686EA98E00E942906C1FB4A
:1038C000882780F91F928F9383EA98E09F938F93C4
:1038D0000E94C20681EA98E00E9429068FE898E0DB
:1038E0000E942906C2FB882780F91F928F938CE8DB
:1038F00098E09F938F930E94C2068AE898E00E9406
:10390000290688E798E00E942906C3FB882780F9EA
:103910001F928F9385E798E09F938F930E94C20632
:1039200083E798E00E94290689E698E00E9429062C
:10393000C4FB882780F91F928F9386E698E09F93B7
:103940008F930E94C20684E698E00E94290682E5D1
:1039500098E00E942906C5FB882780F91F928F9363
:103960008FE498E09F938F930E94C2068DE498E0C5
:103970000E94290681E398E00E942906C6FB882759
:1039800080F91F928F938EE298E09F938F930E940D
:10399000C2068CE298E00E94290684E298E00E9428
:1039A0002906C7FBCC27C0F91F92CF9381E298E08C
:1039B0009F938F930E94C2068FE198E00E94290690
:1039C0008DB79EB74C960FB6F8949EBF0FBE8DBFB5
:1039D00006C085E09AE00E9429060E94A219C1E073
:1039E00005C18DE696E07FC080910802817F8E7FC1
:1039F0008093080282E596E00E94290681E09AE021
:103A00000E94290681E080930A02E9CF0E948E126B
:103A100085EE99E00E9429069FEF23ED80E3915007
:103A200020408040E1F700C000000E94421BD7CF39
:103A300080910802C82FC095C170C0FB80F98093A7
:103A40000802CC2319F089ED99E0BDC08CEC99E017
:103A50000E94290680910802897F877F809308024F
:103A6000BECF9091080291FBCC27C0F981E0C82716
:103A7000892FC0FB81F980930802CC2319F08FEBCA
:103A800099E027C081EB99E02EC09091080292FB4B
:103A9000CC27C0F981E0C827892FC0FB82F9809329
:103AA0000802CC2319F082EA99E013C082E999E078
:103AB0001AC09091080293FBCC27C0F981E0C82777
:103AC000892FC0FB83F980930802CC2351F086E84C
:103AD00099E00E9429068091080281608093080283
:103AE00085C089E799E00E94290679CF83E496E0B2
:103AF0000E94290682E196E00E94290689EB95E062
:103B00000E94290686E895E00E94290685E595E051
:103B10000E9429068AE295E0E6CF8CE195E00E94BA
:103B200029060E94B90C1F928F9382E095E09F9323
:103B30008F930E94C20680910C011F928F938BEE8F
:103B400094E09F938F930E94C20680912F021F9250
:103B50008F9388ED94E09F938F930E94C20680918B
:103B6000350287FB882780F91F928F9380EC94E0C1
:103B70009F938F930E94C2060E94E61A9F938F9391
:103B80007F936F9389EA94E09F938F930E94C2067C
:103B90008DB79EB746960FB6F8949EBF0FBE8DBFE9
:103BA0001ECF0E948E129091350297FBCC27C0F950
:103BB00081E0C827892FC0FB87F980933502CC2389
:103BC00029F08FE699E00E94290610C084E699E06A
:103BD0008ACF895303C08D5101C080E00E948D1BA4
:103BE000FECE82E699E00E942906C0E08C2FCF919C
:103BF000089580E0089580E00895CF93C82F8091C4
:103C00000A02882319F0813049F03EC0E09100019A
:103C1000F091010180818232C9F507C0E091000175
:103C2000F09101018081823261F48C2F0E94F91D94
:103C3000811104C08C2F0E94AD1B24C081E090E054
:103C400021C08C2F0E94FB1D81111BC0C43189F043
:103C500018F4CB3029F010C0C93259F0C83361F4E0
:103C600082E596E00E94290680EA94E00E942906F7
:103C700008C010920A020CC08EE994E00E94290646
:103C800007C081E0817006C010920A0280E002C085
:103C900080E0F8CFCF91089580912E020895089585
:103CA0009FB7F89410920D029FBF90913B02943001
:103CB00009F057C09091E9009F703091EC00232FDC
:103CC000217030FD20E8922B23E02093E900209121
:103CD000EB0020FF43C02091EE0027FF3FC0209162
:103CE0000B02222321F02091E80025FF37C010921B
:103CF0000B0226E03091E80035FD15C030913B0203
:103D0000343061F53091EB0035FD28C0215021F4AD
:103D100081E080930B0222C0EFE9FFE03197F1F7D9
:103D200000C00000E7CF8093F1008091E80085FD9E
:103D30000AC08091E80080FFFCCF8091E8008E7778
:103D40008093E80006C08FB7F89421E020930D021D
:103D50008FBF9F709093E90080E008959F709093CB
:103D6000E9008FEF08950F931F93CF93DF9300D057
:103D70001F92CDB7DEB78C010E945721823011F01F
:103D8000843021F584E089831B830A8382E0809359
:103D9000E9008FEF9091E800815095FD06C095ED08
:103DA0009A95F1F700008111F5CF8091E80085FF29
:103DB0000DC040E050E063E070E0CE0101960E944B
:103DC00074218091E8008E778093E8000F900F9027
:103DD0000F90DF91CF911F910F910895CF93DF93B3
:103DE00000D01F92CDB7DEB720913B02243031F5D1
:103DF00023E02983805891099B838A8382E0809302
:103E0000E9008FEF9091E800815095FD06C095ED97
:103E10009A95F1F700008111F5CF8091E80085FFB8
:103E20000DC040E050E063E070E0CE0101960E94DA
:103E300074218091E8008E778093E8000F900F90B6
:103E40000F90DF91CF910895CF93DF93EC010E9403
:103E50005721823011F08430D9F580910C018823EC
:103E600039F08091350287FF03C060E282E002C032
:103E700068E081E08093E9008FEF9091E800815045
:103E800095FD06C095ED9A95F1F700008111F5CFEB
:103E90008091E80085FF1CC080910C01811105C054
:103EA00040E050E068E070E003C070E040E050E0C7
:103EB000CE010E9474218091E8008E778093E80003
:103EC00080E2FE01AEE0B2E001900D928A95E1F74A
:103ED000DF91CF91089586E49AE00E9429068091AF
:103EE0003A02811109C00E9409230E946623809131
:103EF000E20084608093E200089582E49AE00E94E8
:103F0000290610923A0208958EE39AE00C9429064D
:103F10008AE39AE00C94290686E39AE00E94290637
:103F20000C94A01A20910C022F5F822F62E30E9452
:103F30000F26992319F020930C02089510920C0279
:103F400080910D02882371F180913B02843041F50C
:103F50008091E9008F702091EC00922F917020FDEC
:103F600090E8892B93E09093E9009091EB0090FF0B
:103F700014C09091EE0097FF10C09091E80095FF5B
:103F800003C01092F100F9CF9091E80090FF05C0B6
:103F90009091E8009E779093E8008F708093E900FD
:103FA00010920D02089542E061EC81E00E948322AC
:103FB00042E261EC82E00E94832242E261EC83E013
:103FC0000C94832280913D02833009F460C030F468
:103FD000813071F0823009F499C008958A3009F473
:103FE00085C08B3009F46BC0893009F0A7C020C0B0
:103FF00080913C02813A09F0A1C08091E800877F5E
:104000008093E8008091400290914102892B21F435
:1040100060E28EE092E003C060E080E090E070E05B
:104020000E94BF218091E8008B778093E80008957B
:1040300080913C02813209F081C0809140029091D0
:104040004102029708F07AC08091E800877F809350
:10405000E8008091E80082FD05C080913B0281115B
:10406000F8CF6CC02091F3008091F20090E0922B89
:10407000029729F48091F1008B7F813021F48091A7
:10408000F10080932E028091E8008B7753C08091DD
:104090003C02813A09F052C0809140029091410265
:1040A000892B09F04BC08091E800877F8093E8005E
:1040B0008091E80080FFFCCF80910C0136C0809198
:1040C0003C028132D9F58091400290914102892BC6
:1040D000A9F58091E800877F8093E8000E94B822CC
:1040E00080913E0280930C010C948E1280913C02D0
:1040F000813221F58091E800877F8093E8000E945B
:10410000B82280913F0280932F02089580913C0253
:10411000813AA1F48091E800877F8093E800809144
:10412000E80080FFFCCF80912F028093F100809106
:10413000E8008E778093E8000C94B822089584B745
:10414000877F84BF0FB6F894A8958091600088613E
:1041500080936000109260000FBE80E88093610041
:10416000109261000E94540D0E9409230E94662350
:104170008091E20084608093E20080E59EE10E94ED
:10418000F31878940E94F4250E945C0D82E091E07F
:104190000E94B40C85E29AE00E94290680913B02BD
:1041A000853089F481E29AE00E9429060E94561A1D
:1041B00080913902882391F30E94881A882371F331
:1041C0000E945E21EBCF0E948C0DE8CF0C94E8207A
:1041D000292F332723303105C9F064F4213031050C
:1041E00081F02230310509F049C08BE590E02CEBDD
:1041F0003AE048C02132310521F12232310571F116
:104200003DC082E190E027E13BE03CC0992781304E
:10421000910571F02CF4892B89F5E8EBFAE00DC0DB
:104220008230910541F0039749F5EAE4FAE005C0D0
:10423000E6E7FAE002C0E0E5FAE0849190E09F0151
:1042400021C063307105D0F4660F771FFB01E55D77
:10425000FE4F2081318189E090E014C06330710508
:1042600068F4FB01EE0FFF1FEB5DFE4F20813181F3
:10427000FB01EE5DFE4F808190E004C080E090E0A5
:1042800020E030E0FA013183208308950895CF9330
:10429000C82F0E944621C0933002CF91089580918B
:1042A0003B02843011F081E0089582E0089580910E
:1042B0003002811102C00C944F21089580E189BD24
:1042C00082E189BD09B400FEFDCF8091D8008F7DC9
:1042D0008093D8008091E00082608093E00080911C
:1042E000E00081FDFCCF0895CF92DF92EF92FF9224
:1042F0000F931F93CF93DF93EC018B016A010E9410
:10430000D722811133C0C114D10439F0F601808164
:104310009181081B190BC80FD91FE12CF12C011535
:10432000110519F18091E80085FD16C08091E80023
:104330008E778093E800C114D10449F0F6018081A2
:104340009181E80EF91EF182E08285E00FC00E94A3
:10435000D722882321F30AC089918093F10001506C
:104360001109FFEFEF1AFF0ADACF80E0DF91CF915A
:104370001F910F91FF90EF90DF90CF9008952091C3
:104380004202309143022617370748F06115710544
:1043900039F42091E8002E772093E80001C0B9019C
:1043A00040E061157105A9F120913B02222309F437
:1043B00043C0253009F442C02091E80023FD40C0ED
:1043C0002091E80022FD32C02091E80020FFE9CFD3
:1043D0004091F3002091F20030E0342BFC01CF013A
:1043E0006115710559F02830310540F481918093B1
:1043F000F100615071092F5F3F4FF1CF41E028304C
:10440000310509F040E02091E8002E772093E80084
:10441000C8CF4111C9CF0AC080913B02882361F007
:10442000853061F08091E80083FD0AC08091E8004A
:1044300082FFF2CF80E0089582E0089583E008953E
:1044400081E00895209142023091430226173707F8
:1044500048F06115710539F42091E8002E7720931A
:10446000E80001C0B901FC0120E06115710591F17E
:1044700080913B02882309F440C0853009F43FC095
:104480008091E80083FD3DC08091E80082FD2FC04F
:104490008091E80080FFE9CF2091F3008091F20045
:1044A00090E0922B6115710559F08830910540F428
:1044B00024912093F1003196615071090196F2CF59
:1044C00021E0089709F020E08091E8008E77809342
:1044D000E800CBCF2111CCCF0AC080913B028823CA
:1044E00061F0853061F08091E80083FD0AC0809121
:1044F000E80082FFF2CF80E0089582E0089583E033
:10450000089581E00895982F973058F59093E90029
:10451000981739F07091EC002091ED005091F00067
:1045200003C0242F762F50E021FF19C03091EB00FB
:104530003E7F3093EB003091ED003D7F3093ED00F6
:104540003091EB0031603093EB007093EC002093DE
:10455000ED005093F0002091EE0027FF07C09F5F11
:10456000D3CF8F708093E90081E0089580E00895B3
:1045700080913C0287FF11C08091E80082FD05C058
:1045800080913B028111F8CF11C08091E8008B77B8
:104590000BC080913B02882349F08091E80080FFA6
:1045A000F8CF8091E8008E778093E80008952091FD
:1045B000E4003091E50095E64091EC00842F817095
:1045C00040FF22C08091E80080FD1CC080913B022A
:1045D000882391F0853091F08091EB0085FD10C02B
:1045E0004091E4005091E5004217530729F39A01E6
:1045F000915011F784E0089582E0089583E00895D2
:1046000081E0089580E008954091E80042FFDECF08
:1046100008950E9477230E947F23E0EEF0E08081DE
:1046200081608083E8EDF0E080818F77808319BC22
:10463000A7EDB0E08C918E7F8C9380818F7E8083FC
:1046400010923A0208950F931F93CF93DF930E9425
:1046500077230E947F23C8EDD0E088818F778883FD
:1046600088818068888388818F7D888319BC1092B7
:104670003B0210923702109239021092380200EE7B
:1046800010E0F80180818B7F80838881816088833E
:1046900042E060E080E00E948322E1EEF0E0808171
:1046A0008E7F8083E2EEF0E0808181608083808174
:1046B00088608083F80180818E7F8083888180611B
:1046C0008883DF91CF911F910F910895E8EDF0E07D
:1046D00080818F7E8083E7EDF0E080818160808340
:1046E00084E082BF81E080933A020C942323E8EDBA
:1046F000F0E080818E7F80831092E2000895109216
:10470000DA001092E10008951F920F920FB60F92F7
:1047100011242F933F934F935F936F937F938F93C6
:104720009F93AF93BF93EF93FF938091E10082FF3C
:104730000BC08091E20082FF07C08091E1008B7F77
:104740008093E1000E94921F8091DA0080FF1FC0D9
:104750008091D80080FF1BC08091DA008E7F80930B
:10476000DA008091D90080FF0DC080E189BD82E12F
:1047700089BD09B400FEFDCF81E080933B020E9419
:104780006B1F05C019BC10923B020E947D1F8091D7
:10479000E10080FF19C08091E20080FF15C0809188
:1047A000E2008E7F8093E2008091E200806180933E
:1047B000E2008091D80080628093D80019BC85E027
:1047C00080933B020E94881F8091E10084FF30C0EB
:1047D0008091E20084FF2CC080E189BD82E189BD27
:1047E00009B400FEFDCF8091D8008F7D8093D80062
:1047F0008091E1008F7E8093E1008091E2008F7EC6
:104800008093E2008091E20081608093E2008091D9
:104810003702882311F084E007C08091E30087FD10
:1048200002C081E001C083E080933B020E948C1FA4
:104830008091E10083FF29C08091E20083FF25C0C1
:104840008091E100877F8093E10082E080933B02CA
:10485000109237028091E1008E7F8093E100809179
:10486000E2008E7F8093E2008091E200806180937D
:10487000E20042E060E080E00E9483228091F0004C
:1048800088608093F0000E94841FFF91EF91BF9198
:10489000AF919F918F917F916F915F914F913F91D8
:1048A0002F910F900FBE0F901F9018951F920F928F
:1048B0000FB60F9211242F933F934F935F936F93F3
:1048C0007F938F939F93AF93BF93CF93DF93EF9398
:1048D000FF93C091E900CF708091EC00D82FD17088
:1048E00080FDD0E81092E9008091F000877F8093EE
:1048F000F00078940E949A241092E9008091F000D0
:1049000088608093F000CD2BCF70C093E900FF91B9
:10491000EF91DF91CF91BF91AF919F918F917F9157
:104920006F915F914F913F912F910F900FBE0F901C
:104930001F9018951F93CF93DF93CDB7DEB7AA973B
:104940000FB6F894DEBF0FBECDBFECE3F2E088E017
:104950008E0F9091F10091938E13FBCF0E94E21F76
:104960008091E80083FF28C180913C0290913D0234
:10497000492F50E04A30510508F01EC1FA01E652B5
:10498000FF4F0C941B26803821F0823809F014C1A7
:1049900008C08091380290913902992389F0826091
:1049A0000FC0809140028F70873008F005C180935E
:1049B000E9008091EB0085FB882780F91092E900DF
:1049C0009091E800977F9093E8008093F100109217
:1049D000F100D0C0282F2D7F09F0EEC0882319F0F8
:1049E000823061F0E9C080913E02813009F0E4C07C
:1049F000933009F080E0809339022EC080913E020E
:104A000081112AC0809140028F702FEF280F26302D
:104A100008F0D2C08093E9002091EB0020FF1CC079
:104A2000933021F48091EB00806214C09091EB00F0
:104A300090619093EB0021E030E0A90102C0440FA7
:104A4000551F8A95E2F74093EA001092EA008091A0
:104A5000EB0088608093EB001092E9008091E80001
:104A6000877F8093E8000E94B822A6C08111A4C06D
:104A700010913E021F778091E3008078812B809314
:104A8000E3008091E800877F8093E8000E94B822CD
:104A90008091E80080FFFCCF8091E30080688093E4
:104AA000E300111102C082E001C083E080933B0269
:104AB00083C08058823008F07FC080913E02909180
:104AC0003F028C3D53E0950779F583E08A838AE2C3
:104AD00089834FB7F894DE01139620E03EE051E25F
:104AE000E32FF0E050935700E49120FF03C0E295DC
:104AF000EF703F5FEF708E2F90E0EA3010F0C796B6
:104B000001C0C0968D939D932F5F243149F74FBF0D
:104B10008091E800877F8093E8006AE270E0CE0130
:104B200001960E94BF2115C0609140027091410220
:104B3000AE014F5F5F4F0E94E620BC01892BE1F17F
:104B40009091E800977F9093E80089819A810E9474
:104B500022228091E8008B778093E8002DC0803876
:104B600059F58091E800877F8093E80080913702B3
:104B70008093F1008091E8008E7773CF81111CC083
:104B800090913E029230C0F48091E800877F80933C
:104B9000E800909337020E94B82280913702811179
:104BA00006C08091E30087FD02C081E001C084E07F
:104BB00080933B020E94D31F8091E80083FF0AC0CC
:104BC0008091E800877F8093E8008091EB0080620D
:104BD0008093EB00AA960FB6F894DEBF0FBECDBF50
:104BE000DF91CF911F910895CF9380913B0288234D
:104BF000A1F0C091E900CF709091EC00892F8170F5
:104C000090FD80E8C82B1092E9008091E80083FDB8
:104C10000E949A24CF70C093E900CF910895991B08
:104C200079E004C0991F961708F0961B881F7A95A3
:104C3000C9F780950895EE0FFF1F0590F491E02DC0
:104C40000994F999FECF92BD81BDF89A992780B554
:104C50000895A8E1B0E042E050E00C945526262FDC
:104C6000F999FECF92BD81BDF89A019700B4021662
:104C700039F01FBA20BD0FB6F894FA9AF99A0FBE10
:104C800008950396272F0E9430260E942F26252F55
:104C90000E943026242F0C9430260196272F0E9444
:104CA00030260C942F26DC01CB01FC01F999FECFB4
:104CB00006C0F2BDE1BDF89A319600B40D924150A4
:0A4CC0005040B8F70895F894FFCFB4
:104CCA00E5014C1E241F4F1EEE1EB31E019366679C
:104CDA00959497343536F7F6F5F4F1F030313233EE
:104CEA00C692407122BC0B4B0B290BCE0AE70A0075
:024CFA000B00AD
:00000001FF
